:02000000CA290B
:06000600000000000800EC
:0E000C00213083120313FD00FD0B0A280800AB
:10001A000F3083120313FC004730FD00FD0B132839
:0A002A00FC0B132800000000080082
:1000340083120313F801F9011030FC00710DF80D5F
:10004400F90D7408F8027508031C750FF9020318FA
:1000540032287408F80775080318750FF907031098
:0A006400F00DF10DFC0B2028080040
:10006E0083120313EC1B3D2886113E2886156C1B4C
:10007E004228061143280615EC1A472886104828F0
:10008E0086146C1A4C2806104D2806145D1851283B
:10009E00061652280612861603208612EC195928C7
:1000AE0086115A2886156C195E2806115F280615CA
:1000BE00EC1863288610642886146C1868280610BD
:1000CE00692806145D186D2806166E280612861607
:1000DE00032086125D1C75280D2076280620080048
:1000EE00831203135D106708EC0037205D140800BF
:0E00FE008312031355088A005408820008007C
:10010C0083120313EA0105306A02031894286A0863
:10011C006907840020308000EA0A89286A08690788
:10012C0084008001EA036A086907EB000A30F400D6
:10013C00F5016708F0006808F1001A207808F00053
:10014C007908F1003030F0076B08840070088000EB
:10015C000A30F400F5016708F0006808F1001A2075
:10016C007008E7007108E80000307106031DC02814
:10017C0000307006031DC328C528EA03992808001F
:10018C0083120313E301E4015E08E5005F08E60057
:10019C0080305F06F00080307002031DD7280030DD
:1001AC005E020318E5280130E3000030E4005E082D
:1001BC00003CE5005F08031C013EE601E602650811
:1001CC00E7006608E8006008E90086200630E100D8
:1001DC000030E2006208003C031DF6286108003C78
:1001EC000318112961086007F20001306102F00068
:1001FC000030031C013E6202F100700860078400AD
:10020C000008F00072088400700880000130E102E0
:10021C00031CE203F028600884002030800063088F
:10022C00640403192F29E101E201610860078400CD
:10023C000008203A031D2629E10A0319E20A1B29AA
:10024C000130E102031CE2036108600784002D30D9
:04025C008000080016
:100260004229803083120313DE005529C030DE009E
:1002700055299430DE005529D430DE0055298030D0
:10028000DE005529831203135E08013A0319312950
:100290005E08023A031936295E08033A0319392920
:1002A0005E08043A03193C293F295F03F0005E0809
:1002B000F0077008DE007008EC0037205D10E101E7
:1002C000610860078400000803196E29610860074F
:1002D00084000008E7007720E10A60295D14080027
:1002E0007F208A110A128000840AD40A0319D50AD1
:0802F000F003031D7029080052
:1002F800831603138612061206108610061186113D
:1003080083128612061286110611861006100D2019
:100318000D200D20861406148616032086120D2043
:100328008616032086120D208616032086120D20BD
:1003380006108616032086120D20861603208612C4
:10034800861086158616032086120D20861106143F
:1003580086160320861206108616032086120D20A4
:1003680086160320861206148616032086120D2090
:10037800061086160320861286150615861406149E
:0C0388008616032086120D205D1408006C
:100394009C227C210130EC0037200C30EC0037200B
:1003A4000130DE000130DF002D30E000302102306A
:1003B400DE000130DF002030E00030218316051418
:1003C40085140511831205110518202A0330FB003A
:1003D4000830FC007730FD00FD0BEE29FC0BEE2904
:1003E400FB0BEE290518202AD20A0319D30A520856
:1003F400DE005308DF005630E000C6200130EC0078
:1004040037200C30EC0037200130DE000130DF00F3
:100414003930E00030210130DE000A30DF00563090
:10042400E00030218030F000803053067002031D5C
:100434001D2A5208013C0318202A05158518602A34
:100444000330FB000830FC007730FD00FD0B282A48
:10045400FC0B282AFB0B282A8518602A8030F00020
:10046400803053067002031D392A5208003C0318D9
:10047400602A0130D202031CD3035208DE00530861
:10048400DF005630E000C6200130DE000130DF001E
:100494004530E00030210130DE000A30DF00563004
:1004A400E00030218030F000803053067002031DDC
:1004B4005D2A5208013C031C602A0511E629612AC1
:1005380020308400343083120313F0006730D40075
:080548000230D500702108000B
:1004CE00533459345334543445344D342034493430
:0A04DE004E34493454342034003405
:1004E80041345434543445344E34443441344E3415
:0804F800433445342034003484
:1005000041345434543445344E3441344E344334FD
:0805100045343A342034003474
:1005180041345434543445344E34443441344E34E4
:0A052800433445343A3420340034E3
:04053200003400345D
:02400E006A3D09
:00000001FF
